:020000020000FC
:1000000004E004B903E20093800002E10093810060
:1000100000E50093890000E00093880002E000936F
:100020008B000FEF00938A0000E40AB901E804BDD9
:1000300001E005BD01E007BD06E00093C20000E15C
:100040000093C1000FE10093C40000E00093C500DD
:10005000F1E0E6E037E019D063D079D0043459F00C
:10006000033381F00535C9F772D0F02F70D0E02F3F
:1000700017D056D0F2CF6BD000938B0068D000938E
:100080008A00EBCF64D007BDE8CF209AFF2405910A
:100090004CD03A95E1F70DEF0F1947D0209808950D
:1000A000209AFF240FEF41D00FEF3FD00EEF3DD04D
:1000B0000AE03BD003E839D00EE137D002E035D07A
:1000C00001E033D00E2F31D00F2F2FD002E02DD0F2
:1000D00033E00FEF0E1B3F0B28D0032F26D00DEF80
:1000E0000F1923D00895FFFF010403190100FFFF3A
:1000F000FE0403030200FFFF0105031E0000FFFFD3
:100100000105031EFF03FFFFFE0403180100FFFFAC
:10011000FE04030501000FEF04B9009505B9FDCFFA
:10012000B2E3A0E01197F1F70895F00E2AE010E095
:1001300015B900C0000000C000C000C000C0102FF2
:1001400008940795117015B92A95A9F7089510918B
:0C015000C00017FFFCCF0091C60008950E
:00000001FF
