:020000020000FC
:0200000008C036
:10000C0000E007BD189504E004B903E200938000FA
:10001C0002E10093810000E50093890000E0009369
:10002C00880003E000938B000DE000938A0000E44D
:10003C000AB901E804BD01E005BD01E007BD06E019
:10004C000093C20000E10093C1000FE10093C400D3
:10005C0000E00093C500F1E0E2E937E066D09CD007
:10006C0050E4D1E0C0E0AFD0403929F04038A9F0DD
:10007C00403E79F1F8CF07FDA6D0102FA4D0003068
:10008C0081F0B5D0199303E000938B0000E6009348
:10009C008A0008E207BD25D0E6CF07FD94D0102FCB
:1000AC0092D0DE013A911317E9F709810993CA1727
:1000BC00DB07D9F72197C03041F403E000938B00A4
:1000CC000DE000938A0088D0CECF1A91219609D0EA
:1000DC00CACF07FD78D077D0502F1A91219601D036
:1000EC00C2CF193508F51554F8F0F2E0E0E100271D
:1000FC00110F111F001F111F001F111F001F111FB7
:10010C00001F111F001FE10FF01F0027E50FF01F4C
:10011C00E50FF01F059107BDBB27A59102E010E389
:10012C00A10FB01F0DD008950895209AFF240591BA
:10013C0038D03A95E1F70DEF0F1933D02098089588
:10014C00209AFF240FEF2DD00FEF2BD00EEF29D0DC
:10015C000AE027D003E825D00EE123D002E021D01D
:10016C0001E01FD00A2F1DD00B2F1BD002E019D09D
:10017C0033E00FEF0A1B3B0B14D0032F12D00DEF03
:10018C000F190FD00895FFFFFE04031801000FEFA5
:10019C0004B9009505B9FDCFB2E3A0E01197F1F7D2
:1001AC000895F00E2AE010E015B900C0000000C060
:1001BC0000C000C000C0102F08940795117015B92D
:1001CC002A95A9F708950091C00007FFFCCF009174
:1001DC00C60007FD402F0895A895009160000861A6
:1001EC000093600007E40093600078940895A8954C
:1001FC00F8940091600000610093600000E00093AF
:10020C0060000895300030003000300030003000C5
:10021C003000300030003000300030003000300052
:10022C003000300030003000300030003000300042
:10023C003000300030003000300030003000300032
:10024C003000300030003000300030003000300022
:10025C003000300030003000300030003000300012
:10026C003000300030003000300030003000300002
:10027C0030003000300030003000300030003101F0
:10028C0032023202330333033404340435053506A9
:10029C003506360736073608360836083709370963
:1002AC003709380A380A380A380B380B390C390C2C
:1002BC00390C390D390D390D3A0E3A0E3A0E3A0FFA
:1002CC003A0F3B103B103B103B113B113B113B11C8
:1002DC003B123B123B123C133C133C133C143C149E
:1002EC003C143C143D153D153D153D153D163D1674
:1002FC003D163D163E173E173E173E183E183E184B
:10030C003E193E193E193E193F1A3F1A3F1A3F1B20
:10031C003F1B3F1B401C401C401C401C401D401EF2
:10032C00401E401E411F411F411F411F41204120C3
:10033C004120412141214121422242224222422399
:10034C00422342234224422442244325432543256D
:10035C004326432643264327432743274428442840
:10036C004428442944294429442A442A442A452B14
:10037C00452B452C452C452D452D452D462E462EE1
:10038C00462E462E462F462F4630463046304731B5
:10039C00473147314731473247324732473347338A
:1003AC00473347334834483448354835483648365F
:1003BC004836483649374937493849394939493A2D
:1003CC00493A493A4A3B4A3B4A3B4A3B4A3C4A3CFB
:1003DC004A3C4A3D4A3D4A3D4B3E4B3E4B3E4B3FD1
:1003EC004B3F4B3F4B3F4B404B404C414C414C41A6
:1003FC004C424C424C424C434C434C444C444C4479
:10040C004D454D454D454D454D464D464D464D474B
:10041C004D474D474E484E484E484E494E494E4921
:10042C004E4A4E4A4E4B4E4B4E4B4E4B4F4C4F4CF6
:10043C004F4C4F4C4F4D4F4D4F4D4F4E4F4E4F4ECF
:10044C004F4F4F4F4F4F50505050505050505051A5
:10045C00505150515051505250525052515351537F
:10046C005153515451545154515451555155515556
:10047C00515651565156515652575257525752582F
:10048C0052585258525852595259525A525A535B06
:10049C00535B535C535C535C535C535D535D535DD6
:1004AC00535E535E545F545F545F545F54605460AA
:1004BC005460546154615461546154625462546286
:1004CC005462556355635563556555655566556658
:1004DC00556655665566566756675667566856682C
:1004EC005668566956695669566A566A566A566A05
:1004FC00576B576B576B576C576C576C576D576DD9
:10050C00576E576E576E576E586F586F586F5870AE
:10051C005870587158715871587258725872587284
:10052C00597359735973597359745974597459745B
:10053C005975597559755975597659765977597739
:10054C005A785A785A785A785A785A795A795A790C
:10055C005A7A5A7A5A7B5A7B5A7B5B7C5B7C5B7CE3
:10056C005B7C5B7D5B7D5B7D5B7E5B7E5B7E5B7EBC
:10057C005B7F5B7F5B7F5B7F5C805C805C805C8196
:10058C005C815C815C825C825C825C825C825C8370
:10059C005C835C835C835C845C845C845C845C8452
:1005AC005D855D855D855D865D865D865D875D8728
:1005BC005D875D875D875D885D885D885D885D880A
:1005CC005E895E895E895E8A5E8A5E8A5E8B5E8BE0
:1005DC005E8C5E8C5F8D5F8D5F8D5F8D5F8E5F8EB1
:1005EC005F8E5F8F5F8F5F905F905F915F91609286
:1005FC006092609260936093609460946095609553
:10060C006096609660966197619761976198619822
:10061C006198619961996199619A619A619A629BF9
:10062C00629B629C629D629D629D629E629E629EC6
:10063C00629E629F629F629F63A063A063A063A09F
:10064C0063A163A163A163A263A263A263A363A377
:10065C0063A363A463A463A463A464A564A564A650
:10066C0064A664A764A764A864A864A865A965A91E
:10067C0065A965A965AA65AA65AA65AB65AB65ABF5
:10068C0065AC65AC65AD65AD65AD66AE66AE66AECA
:10069C0066AF66AF66AF66AF66B066B166B266B29D
:1006AC0067B367B367B367B367B467B467B467B569
:1006BC0067B567B667B667B667B767B767B768B841
:1006CC0068B868B868B968B968B968BA68BA68BA15
:1006DC0068BB68BC68BC69BD69BD69BE69BE69BEE2
:1006EC0069BF69BF69BF69C069C069C169C169C1B6
:1006FC006AC26AC26AC26AC36AC36AC46AC46AC585
:10070C006AC56AC66AC66BC76BC76BC86BC96BC94F
:10071C006BCA6BCA6BCA6BCB6BCB6CCC6CCC6CCD19
:10072C006CCD6CCD6CCE6CCE6CCF6CD06CD06DD1E6
:10073C006DD16DD26DD36DD46DD46DD46DD56ED6A7
:10074C006ED76ED76ED86ED96EDA6EDA6FDB6FDC61
:10075C006FDD6FDF70E070E070E070E070E070E013
:10076C0070E070E070E070E070E070E070E070E0FD
:10077C0070E070E070E070E070E070E070E070E0ED
:10078C0070E070E070E070E070E070E070E070E0DD
:10079C0070E070E070E070E070E070E070E070E0CD
:1007AC0070E070E070E070E070E070E070E070E0BD
:1007BC0070E070E070E070E070E070E070E070E0AD
:1007CC0070E070E070E070E070E070E070E070E09D
:1007DC0070E070E070E070E070E070E070E070E08D
:1007EC0070E070E070E070E070E070E070E070E07D
:1007FC0070E070E070E070E070E070E070E070E06D
:04080C0070E070E048
:00000001FF
